{
    "_format": "hh-sol-artifact-1",
    "contractName": "Lottery",
    "sourceName": "contracts/Lottery.sol",
    "abi": [
        {
            "inputs": [
                {
                    "internalType": "uint256",
                    "name": "_purchaseRatio",
                    "type": "uint256"
                },
                {
                    "internalType": "uint256",
                    "name": "_betPrice",
                    "type": "uint256"
                },
                {
                    "internalType": "uint256",
                    "name": "_betFee",
                    "type": "uint256"
                },
                {
                    "internalType": "address",
                    "name": "ERC20address",
                    "type": "address"
                }
            ],
            "stateMutability": "nonpayable",
            "type": "constructor"
        },
        {
            "anonymous": false,
            "inputs": [
                {
                    "indexed": true,
                    "internalType": "address",
                    "name": "previousOwner",
                    "type": "address"
                },
                {
                    "indexed": true,
                    "internalType": "address",
                    "name": "newOwner",
                    "type": "address"
                }
            ],
            "name": "OwnershipTransferred",
            "type": "event"
        },
        {
            "inputs": [],
            "name": "bet",
            "outputs": [],
            "stateMutability": "nonpayable",
            "type": "function"
        },
        {
            "inputs": [],
            "name": "betFee",
            "outputs": [
                {
                    "internalType": "uint256",
                    "name": "",
                    "type": "uint256"
                }
            ],
            "stateMutability": "view",
            "type": "function"
        },
        {
            "inputs": [
                {
                    "internalType": "uint256",
                    "name": "times",
                    "type": "uint256"
                }
            ],
            "name": "betMany",
            "outputs": [],
            "stateMutability": "nonpayable",
            "type": "function"
        },
        {
            "inputs": [],
            "name": "betPrice",
            "outputs": [
                {
                    "internalType": "uint256",
                    "name": "",
                    "type": "uint256"
                }
            ],
            "stateMutability": "view",
            "type": "function"
        },
        {
            "inputs": [],
            "name": "betsClosingTime",
            "outputs": [
                {
                    "internalType": "uint256",
                    "name": "",
                    "type": "uint256"
                }
            ],
            "stateMutability": "view",
            "type": "function"
        },
        {
            "inputs": [],
            "name": "betsOpen",
            "outputs": [
                {
                    "internalType": "bool",
                    "name": "",
                    "type": "bool"
                }
            ],
            "stateMutability": "view",
            "type": "function"
        },
        {
            "inputs": [],
            "name": "closeLottery",
            "outputs": [],
            "stateMutability": "nonpayable",
            "type": "function"
        },
        {
            "inputs": [],
            "name": "getRandomNumber",
            "outputs": [
                {
                    "internalType": "uint256",
                    "name": "randomNumber",
                    "type": "uint256"
                }
            ],
            "stateMutability": "view",
            "type": "function"
        },
        {
            "inputs": [
                {
                    "internalType": "uint256",
                    "name": "num_of_days",
                    "type": "uint256"
                }
            ],
            "name": "openBets",
            "outputs": [],
            "stateMutability": "nonpayable",
            "type": "function"
        },
        {
            "inputs": [],
            "name": "owner",
            "outputs": [
                {
                    "internalType": "address",
                    "name": "",
                    "type": "address"
                }
            ],
            "stateMutability": "view",
            "type": "function"
        },
        {
            "inputs": [],
            "name": "ownerPool",
            "outputs": [
                {
                    "internalType": "uint256",
                    "name": "",
                    "type": "uint256"
                }
            ],
            "stateMutability": "view",
            "type": "function"
        },
        {
            "inputs": [
                {
                    "internalType": "uint256",
                    "name": "amount",
                    "type": "uint256"
                }
            ],
            "name": "ownerWithdraw",
            "outputs": [],
            "stateMutability": "nonpayable",
            "type": "function"
        },
        {
            "inputs": [],
            "name": "paymentToken",
            "outputs": [
                {
                    "internalType": "contract LotteryErc20",
                    "name": "",
                    "type": "address"
                }
            ],
            "stateMutability": "view",
            "type": "function"
        },
        {
            "inputs": [
                {
                    "internalType": "address",
                    "name": "",
                    "type": "address"
                }
            ],
            "name": "prize",
            "outputs": [
                {
                    "internalType": "uint256",
                    "name": "",
                    "type": "uint256"
                }
            ],
            "stateMutability": "view",
            "type": "function"
        },
        {
            "inputs": [],
            "name": "prizePool",
            "outputs": [
                {
                    "internalType": "uint256",
                    "name": "",
                    "type": "uint256"
                }
            ],
            "stateMutability": "view",
            "type": "function"
        },
        {
            "inputs": [
                {
                    "internalType": "uint256",
                    "name": "amount",
                    "type": "uint256"
                }
            ],
            "name": "prizeWithdraw",
            "outputs": [],
            "stateMutability": "nonpayable",
            "type": "function"
        },
        {
            "inputs": [],
            "name": "purchaseRatio",
            "outputs": [
                {
                    "internalType": "uint256",
                    "name": "",
                    "type": "uint256"
                }
            ],
            "stateMutability": "view",
            "type": "function"
        },
        {
            "inputs": [],
            "name": "purchaseTokens",
            "outputs": [],
            "stateMutability": "payable",
            "type": "function"
        },
        {
            "inputs": [],
            "name": "renounceOwnership",
            "outputs": [],
            "stateMutability": "nonpayable",
            "type": "function"
        },
        {
            "inputs": [
                {
                    "internalType": "uint256",
                    "name": "amount",
                    "type": "uint256"
                }
            ],
            "name": "returnTokens",
            "outputs": [],
            "stateMutability": "nonpayable",
            "type": "function"
        },
        {
            "inputs": [
                {
                    "internalType": "address",
                    "name": "newOwner",
                    "type": "address"
                }
            ],
            "name": "transferOwnership",
            "outputs": [],
            "stateMutability": "nonpayable",
            "type": "function"
        }
    ],
    "bytecode": "0x60806040523480156200001157600080fd5b5060405162001ccc38038062001ccc833981810160405281019062000037919062000228565b620000576200004b620000b760201b60201c565b620000bf60201b60201c565b80600160006101000a81548173ffffffffffffffffffffffffffffffffffffffff021916908373ffffffffffffffffffffffffffffffffffffffff160217905550836002819055508260038190555081600481905550505050506200029a565b600033905090565b60008060009054906101000a900473ffffffffffffffffffffffffffffffffffffffff169050816000806101000a81548173ffffffffffffffffffffffffffffffffffffffff021916908373ffffffffffffffffffffffffffffffffffffffff1602179055508173ffffffffffffffffffffffffffffffffffffffff168173ffffffffffffffffffffffffffffffffffffffff167f8be0079c531659141344cd1fd0a4f28419497f9722a3daafe3b4186f6b6457e060405160405180910390a35050565b600080fd5b6000819050919050565b6200019d8162000188565b8114620001a957600080fd5b50565b600081519050620001bd8162000192565b92915050565b600073ffffffffffffffffffffffffffffffffffffffff82169050919050565b6000620001f082620001c3565b9050919050565b6200020281620001e3565b81146200020e57600080fd5b50565b6000815190506200022281620001f7565b92915050565b6000806000806080858703121562000245576200024462000183565b5b60006200025587828801620001ac565b94505060206200026887828801620001ac565b93505060406200027b87828801620001ac565b92505060606200028e8782880162000211565b91505092959194509250565b611a2280620002aa6000396000f3fe60806040526004361061012a5760003560e01c8063719ce73e116100ab57806395cadc471161006f57806395cadc4714610361578063990a49f51461038c578063cfd8a175146103b5578063d1b258ff146103e0578063dbdff2c11461040b578063f2fde38b146104365761012a565b8063719ce73e1461027a578063729e91e9146102a5578063841e6ce9146102ce5780638adf9c1f146102f95780638da5cb5b146103365761012a565b806333f707d1116100f257806333f707d1146101d15780633ae1786f146101fa5780633cc121e6146102235780636fd098161461024c578063715018a6146102635761012a565b806311610c251461012f57806318c34965146101465780632b65e040146101715780633013ce291461019c5780633290ce29146101c7575b600080fd5b34801561013b57600080fd5b5061014461045f565b005b34801561015257600080fd5b5061015b610608565b6040516101689190611144565b60405180910390f35b34801561017d57600080fd5b5061018661060e565b6040516101939190611144565b60405180910390f35b3480156101a857600080fd5b506101b1610614565b6040516101be91906111de565b60405180910390f35b6101cf61063a565b005b3480156101dd57600080fd5b506101f860048036038101906101f3919061122a565b6106d8565b005b34801561020657600080fd5b50610221600480360381019061021c919061122a565b6107e2565b005b34801561022f57600080fd5b5061024a6004803603810190610245919061122a565b6108c8565b005b34801561025857600080fd5b50610261610a44565b005b34801561026f57600080fd5b50610278610bda565b005b34801561028657600080fd5b5061028f610bee565b60405161029c9190611144565b60405180910390f35b3480156102b157600080fd5b506102cc60048036038101906102c7919061122a565b610bf4565b005b3480156102da57600080fd5b506102e3610e1c565b6040516102f09190611144565b60405180910390f35b34801561030557600080fd5b50610320600480360381019061031b9190611295565b610e22565b60405161032d9190611144565b60405180910390f35b34801561034257600080fd5b5061034b610e3a565b60405161035891906112d1565b60405180910390f35b34801561036d57600080fd5b50610376610e63565b6040516103839190611144565b60405180910390f35b34801561039857600080fd5b506103b360048036038101906103ae919061122a565b610e69565b005b3480156103c157600080fd5b506103ca610eff565b6040516103d79190611144565b60405180910390f35b3480156103ec57600080fd5b506103f5610f05565b6040516104029190611307565b60405180910390f35b34801561041757600080fd5b50610420610f18565b60405161042d9190611144565b60405180910390f35b34801561044257600080fd5b5061045d60048036038101906104589190611295565b610f20565b005b600760009054906101000a900460ff16801561047c575060085442105b6104bb576040517f08c379a00000000000000000000000000000000000000000000000000000000081526004016104b29061137f565b60405180910390fd5b600454600660008282546104cf91906113ce565b92505081905550600354600560008282546104ea91906113ce565b92505081905550600a339080600181540180825580915050600190039060005260206000200160009091909190916101000a81548173ffffffffffffffffffffffffffffffffffffffff021916908373ffffffffffffffffffffffffffffffffffffffff160217905550600160009054906101000a900473ffffffffffffffffffffffffffffffffffffffff1673ffffffffffffffffffffffffffffffffffffffff166323b872dd33306004546003546105a491906113ce565b6040518463ffffffff1660e01b81526004016105c293929190611402565b6020604051808303816000875af11580156105e1573d6000803e3d6000fd5b505050506040513d601f19601f820116820180604052508101906106059190611465565b50565b60085481565b60065481565b600160009054906101000a900473ffffffffffffffffffffffffffffffffffffffff1681565b600160009054906101000a900473ffffffffffffffffffffffffffffffffffffffff1673ffffffffffffffffffffffffffffffffffffffff166340c10f1933600254346106879190611492565b6040518363ffffffff1660e01b81526004016106a49291906114d4565b600060405180830381600087803b1580156106be57600080fd5b505af11580156106d2573d6000803e3d6000fd5b50505050565b6106e0610fa3565b600654811115610725576040517f08c379a000000000000000000000000000000000000000000000000000000000815260040161071c90611549565b60405180910390fd5b80600660008282546107379190611569565b92505081905550600160009054906101000a900473ffffffffffffffffffffffffffffffffffffffff1673ffffffffffffffffffffffffffffffffffffffff1663a9059cbb33836040518363ffffffff1660e01b815260040161079b9291906114d4565b6020604051808303816000875af11580156107ba573d6000803e3d6000fd5b505050506040513d601f19601f820116820180604052508101906107de9190611465565b5050565b600160009054906101000a900473ffffffffffffffffffffffffffffffffffffffff1673ffffffffffffffffffffffffffffffffffffffff166379cc679033836040518363ffffffff1660e01b815260040161083f9291906114d4565b600060405180830381600087803b15801561085957600080fd5b505af115801561086d573d6000803e3d6000fd5b505050503373ffffffffffffffffffffffffffffffffffffffff166108fc6002548361089991906115cc565b9081150290604051600060405180830381858888f193505050501580156108c4573d6000803e3d6000fd5b5050565b600960003373ffffffffffffffffffffffffffffffffffffffff1673ffffffffffffffffffffffffffffffffffffffff1681526020019081526020016000205481111561094a576040517f08c379a000000000000000000000000000000000000000000000000000000000815260040161094190611649565b60405180910390fd5b80600960003373ffffffffffffffffffffffffffffffffffffffff1673ffffffffffffffffffffffffffffffffffffffff16815260200190815260200160002060008282546109999190611569565b92505081905550600160009054906101000a900473ffffffffffffffffffffffffffffffffffffffff1673ffffffffffffffffffffffffffffffffffffffff1663a9059cbb33836040518363ffffffff1660e01b81526004016109fd9291906114d4565b6020604051808303816000875af1158015610a1c573d6000803e3d6000fd5b505050506040513d601f19601f82011682018060405250810190610a409190611465565b5050565b600854421015610a89576040517f08c379a0000000000000000000000000000000000000000000000000000000008152600401610a80906116b5565b60405180910390fd5b60011515600760009054906101000a900460ff16151514610adf576040517f08c379a0000000000000000000000000000000000000000000000000000000008152600401610ad690611721565b60405180910390fd5b6000600a805490501115610bbd576000600a80549050610afd610f18565b610b079190611741565b90506000600a8281548110610b1f57610b1e611772565b5b9060005260206000200160009054906101000a900473ffffffffffffffffffffffffffffffffffffffff169050600554600960008373ffffffffffffffffffffffffffffffffffffffff1673ffffffffffffffffffffffffffffffffffffffff1681526020019081526020016000206000828254610b9d91906113ce565b925050819055506000600581905550600a6000610bba91906110ed565b50505b6000600760006101000a81548160ff021916908315150217905550565b610be2610fa3565b610bec6000611021565b565b60055481565b600760009054906101000a900460ff168015610c11575060085442105b610c50576040517f08c379a0000000000000000000000000000000000000000000000000000000008152600401610c479061137f565b60405180910390fd5b60018111610c93576040517f08c379a0000000000000000000000000000000000000000000000000000000008152600401610c8a90611839565b60405180910390fd5b600060045482610ca39190611492565b9050600060035483610cb59190611492565b90508160066000828254610cc991906113ce565b925050819055508060056000828254610ce291906113ce565b925050819055505b6000831115610d6957600a339080600181540180825580915050600190039060005260206000200160009091909190916101000a81548173ffffffffffffffffffffffffffffffffffffffff021916908373ffffffffffffffffffffffffffffffffffffffff1602179055508280610d6190611859565b935050610cea565b600160009054906101000a900473ffffffffffffffffffffffffffffffffffffffff1673ffffffffffffffffffffffffffffffffffffffff166323b872dd33308486610db591906113ce565b6040518463ffffffff1660e01b8152600401610dd393929190611402565b6020604051808303816000875af1158015610df2573d6000803e3d6000fd5b505050506040513d601f19601f82011682018060405250810190610e169190611465565b50505050565b60045481565b60096020528060005260406000206000915090505481565b60008060009054906101000a900473ffffffffffffffffffffffffffffffffffffffff16905090565b60025481565b610e71610fa3565b600760009054906101000a900460ff1615610ec1576040517f08c379a0000000000000000000000000000000000000000000000000000000008152600401610eb8906118ce565b60405180910390fd5b6201518081610ed09190611492565b42610edb91906113ce565b6008819055506001600760006101000a81548160ff02191690831515021790555050565b60035481565b600760009054906101000a900460ff1681565b600044905090565b610f28610fa3565b600073ffffffffffffffffffffffffffffffffffffffff168173ffffffffffffffffffffffffffffffffffffffff1603610f97576040517f08c379a0000000000000000000000000000000000000000000000000000000008152600401610f8e90611960565b60405180910390fd5b610fa081611021565b50565b610fab6110e5565b73ffffffffffffffffffffffffffffffffffffffff16610fc9610e3a565b73ffffffffffffffffffffffffffffffffffffffff161461101f576040517f08c379a0000000000000000000000000000000000000000000000000000000008152600401611016906119cc565b60405180910390fd5b565b60008060009054906101000a900473ffffffffffffffffffffffffffffffffffffffff169050816000806101000a81548173ffffffffffffffffffffffffffffffffffffffff021916908373ffffffffffffffffffffffffffffffffffffffff1602179055508173ffffffffffffffffffffffffffffffffffffffff168173ffffffffffffffffffffffffffffffffffffffff167f8be0079c531659141344cd1fd0a4f28419497f9722a3daafe3b4186f6b6457e060405160405180910390a35050565b600033905090565b508054600082559060005260206000209081019061110b919061110e565b50565b5b8082111561112757600081600090555060010161110f565b5090565b6000819050919050565b61113e8161112b565b82525050565b60006020820190506111596000830184611135565b92915050565b600073ffffffffffffffffffffffffffffffffffffffff82169050919050565b6000819050919050565b60006111a461119f61119a8461115f565b61117f565b61115f565b9050919050565b60006111b682611189565b9050919050565b60006111c8826111ab565b9050919050565b6111d8816111bd565b82525050565b60006020820190506111f360008301846111cf565b92915050565b600080fd5b6112078161112b565b811461121257600080fd5b50565b600081359050611224816111fe565b92915050565b6000602082840312156112405761123f6111f9565b5b600061124e84828501611215565b91505092915050565b60006112628261115f565b9050919050565b61127281611257565b811461127d57600080fd5b50565b60008135905061128f81611269565b92915050565b6000602082840312156112ab576112aa6111f9565b5b60006112b984828501611280565b91505092915050565b6112cb81611257565b82525050565b60006020820190506112e660008301846112c2565b92915050565b60008115159050919050565b611301816112ec565b82525050565b600060208201905061131c60008301846112f8565b92915050565b600082825260208201905092915050565b7f4c6f747465727920697320636c6f736564000000000000000000000000000000600082015250565b6000611369601183611322565b915061137482611333565b602082019050919050565b600060208201905081810360008301526113988161135c565b9050919050565b7f4e487b7100000000000000000000000000000000000000000000000000000000600052601160045260246000fd5b60006113d98261112b565b91506113e48361112b565b92508282019050808211156113fc576113fb61139f565b5b92915050565b600060608201905061141760008301866112c2565b61142460208301856112c2565b6114316040830184611135565b949350505050565b611442816112ec565b811461144d57600080fd5b50565b60008151905061145f81611439565b92915050565b60006020828403121561147b5761147a6111f9565b5b600061148984828501611450565b91505092915050565b600061149d8261112b565b91506114a88361112b565b92508282026114b68161112b565b915082820484148315176114cd576114cc61139f565b5b5092915050565b60006040820190506114e960008301856112c2565b6114f66020830184611135565b9392505050565b7f4e6f7420656e6f756768206665657320636f6c6c656374656400000000000000600082015250565b6000611533601983611322565b915061153e826114fd565b602082019050919050565b6000602082019050818103600083015261156281611526565b9050919050565b60006115748261112b565b915061157f8361112b565b92508282039050818111156115975761159661139f565b5b92915050565b7f4e487b7100000000000000000000000000000000000000000000000000000000600052601260045260246000fd5b60006115d78261112b565b91506115e28361112b565b9250826115f2576115f161159d565b5b828204905092915050565b7f4e6f7420656e6f756768207072697a6500000000000000000000000000000000600082015250565b6000611633601083611322565b915061163e826115fd565b602082019050919050565b6000602082019050818103600083015261166281611626565b9050919050565b7f546f6f20736f6f6e20746f20636c6f7365000000000000000000000000000000600082015250565b600061169f601183611322565b91506116aa82611669565b602082019050919050565b600060208201905081810360008301526116ce81611692565b9050919050565b7f416c726561647920636c6f736564000000000000000000000000000000000000600082015250565b600061170b600e83611322565b9150611716826116d5565b602082019050919050565b6000602082019050818103600083015261173a816116fe565b9050919050565b600061174c8261112b565b91506117578361112b565b9250826117675761176661159d565b5b828206905092915050565b7f4e487b7100000000000000000000000000000000000000000000000000000000600052603260045260246000fd5b7f546f20757365207768656e20706c6163696e67207365766572616c206265747360008201527f206174206f6e63652c2075736520626574282920666f722073696e676c65206260208201527f6574000000000000000000000000000000000000000000000000000000000000604082015250565b6000611823604283611322565b915061182e826117a1565b606082019050919050565b6000602082019050818103600083015261185281611816565b9050919050565b60006118648261112b565b9150600082036118775761187661139f565b5b600182039050919050565b7f4c6f7474657279206973206f70656e0000000000000000000000000000000000600082015250565b60006118b8600f83611322565b91506118c382611882565b602082019050919050565b600060208201905081810360008301526118e7816118ab565b9050919050565b7f4f776e61626c653a206e6577206f776e657220697320746865207a65726f206160008201527f6464726573730000000000000000000000000000000000000000000000000000602082015250565b600061194a602683611322565b9150611955826118ee565b604082019050919050565b600060208201905081810360008301526119798161193d565b9050919050565b7f4f776e61626c653a2063616c6c6572206973206e6f7420746865206f776e6572600082015250565b60006119b6602083611322565b91506119c182611980565b602082019050919050565b600060208201905081810360008301526119e5816119a9565b905091905056fea2646970667358221220d96df15409b5c4d5a7cc2473b2e68c6684a6d1699d8a1133c55a7247cbdea14964736f6c63430008110033",
    "linkReferences": {},
    "deployedLinkReferences": {}
}